{
  "_format": "hh-sol-artifact-1",
  "contractName": "ShadowStablecoinMint",
  "sourceName": "contracts/StablecoinMint.sol",
  "abi": [
    {
      "inputs": [],
      "stateMutability": "nonpayable",
      "type": "constructor"
    },
    {
      "inputs": [],
      "name": "ZamaProtocolUnsupported",
      "type": "error"
    },
    {
      "anonymous": false,
      "inputs": [
        {
          "indexed": true,
          "internalType": "address",
          "name": "from",
          "type": "address"
        },
        {
          "indexed": false,
          "internalType": "uint64",
          "name": "amount",
          "type": "uint64"
        }
      ],
      "name": "Burn",
      "type": "event"
    },
    {
      "anonymous": false,
      "inputs": [
        {
          "indexed": true,
          "internalType": "address",
          "name": "user",
          "type": "address"
        },
        {
          "indexed": false,
          "internalType": "uint64",
          "name": "amount",
          "type": "uint64"
        }
      ],
      "name": "FaucetClaimed",
      "type": "event"
    },
    {
      "anonymous": false,
      "inputs": [
        {
          "indexed": true,
          "internalType": "address",
          "name": "to",
          "type": "address"
        },
        {
          "indexed": false,
          "internalType": "uint64",
          "name": "amount",
          "type": "uint64"
        }
      ],
      "name": "Mint",
      "type": "event"
    },
    {
      "anonymous": false,
      "inputs": [
        {
          "indexed": true,
          "internalType": "address",
          "name": "previousOwner",
          "type": "address"
        },
        {
          "indexed": true,
          "internalType": "address",
          "name": "newOwner",
          "type": "address"
        }
      ],
      "name": "OwnershipTransferred",
      "type": "event"
    },
    {
      "anonymous": false,
      "inputs": [
        {
          "indexed": true,
          "internalType": "address",
          "name": "from",
          "type": "address"
        },
        {
          "indexed": true,
          "internalType": "address",
          "name": "to",
          "type": "address"
        }
      ],
      "name": "Transfer",
      "type": "event"
    },
    {
      "inputs": [
        {
          "internalType": "address",
          "name": "from",
          "type": "address"
        },
        {
          "internalType": "uint64",
          "name": "amount",
          "type": "uint64"
        }
      ],
      "name": "burnReplica",
      "outputs": [],
      "stateMutability": "nonpayable",
      "type": "function"
    },
    {
      "inputs": [],
      "name": "claimReplicaFaucet",
      "outputs": [],
      "stateMutability": "nonpayable",
      "type": "function"
    },
    {
      "inputs": [],
      "name": "confidentialProtocolId",
      "outputs": [
        {
          "internalType": "uint256",
          "name": "",
          "type": "uint256"
        }
      ],
      "stateMutability": "view",
      "type": "function"
    },
    {
      "inputs": [],
      "name": "decimals",
      "outputs": [
        {
          "internalType": "uint8",
          "name": "",
          "type": "uint8"
        }
      ],
      "stateMutability": "view",
      "type": "function"
    },
    {
      "inputs": [],
      "name": "faucetAmount",
      "outputs": [
        {
          "internalType": "uint64",
          "name": "",
          "type": "uint64"
        }
      ],
      "stateMutability": "view",
      "type": "function"
    },
    {
      "inputs": [],
      "name": "faucetCooldown",
      "outputs": [
        {
          "internalType": "uint256",
          "name": "",
          "type": "uint256"
        }
      ],
      "stateMutability": "view",
      "type": "function"
    },
    {
      "inputs": [
        {
          "internalType": "address",
          "name": "",
          "type": "address"
        }
      ],
      "name": "lastFaucetClaim",
      "outputs": [
        {
          "internalType": "uint256",
          "name": "",
          "type": "uint256"
        }
      ],
      "stateMutability": "view",
      "type": "function"
    },
    {
      "inputs": [],
      "name": "makeBalanceDecryptable",
      "outputs": [],
      "stateMutability": "nonpayable",
      "type": "function"
    },
    {
      "inputs": [],
      "name": "makeTotalSupplyDecryptable",
      "outputs": [],
      "stateMutability": "nonpayable",
      "type": "function"
    },
    {
      "inputs": [
        {
          "internalType": "address",
          "name": "to",
          "type": "address"
        },
        {
          "internalType": "uint64",
          "name": "amount",
          "type": "uint64"
        }
      ],
      "name": "mintReplica",
      "outputs": [],
      "stateMutability": "nonpayable",
      "type": "function"
    },
    {
      "inputs": [],
      "name": "name",
      "outputs": [
        {
          "internalType": "string",
          "name": "",
          "type": "string"
        }
      ],
      "stateMutability": "view",
      "type": "function"
    },
    {
      "inputs": [],
      "name": "owner",
      "outputs": [
        {
          "internalType": "address",
          "name": "",
          "type": "address"
        }
      ],
      "stateMutability": "view",
      "type": "function"
    },
    {
      "inputs": [
        {
          "internalType": "address",
          "name": "user",
          "type": "address"
        }
      ],
      "name": "replicaBalanceOf",
      "outputs": [
        {
          "internalType": "euint64",
          "name": "",
          "type": "bytes32"
        }
      ],
      "stateMutability": "view",
      "type": "function"
    },
    {
      "inputs": [
        {
          "internalType": "address",
          "name": "user",
          "type": "address"
        }
      ],
      "name": "replicaTimeUntilNextClaim",
      "outputs": [
        {
          "internalType": "uint256",
          "name": "",
          "type": "uint256"
        }
      ],
      "stateMutability": "view",
      "type": "function"
    },
    {
      "inputs": [],
      "name": "replicaTotalSupply",
      "outputs": [
        {
          "internalType": "euint64",
          "name": "",
          "type": "bytes32"
        }
      ],
      "stateMutability": "view",
      "type": "function"
    },
    {
      "inputs": [
        {
          "internalType": "uint64",
          "name": "newAmount",
          "type": "uint64"
        },
        {
          "internalType": "uint256",
          "name": "newCooldown",
          "type": "uint256"
        }
      ],
      "name": "setReplicaFaucetSettings",
      "outputs": [],
      "stateMutability": "nonpayable",
      "type": "function"
    },
    {
      "inputs": [],
      "name": "symbol",
      "outputs": [
        {
          "internalType": "string",
          "name": "",
          "type": "string"
        }
      ],
      "stateMutability": "view",
      "type": "function"
    },
    {
      "inputs": [
        {
          "internalType": "address",
          "name": "to",
          "type": "address"
        },
        {
          "internalType": "externalEuint64",
          "name": "encryptedAmount",
          "type": "bytes32"
        },
        {
          "internalType": "bytes",
          "name": "inputProof",
          "type": "bytes"
        }
      ],
      "name": "transferReplica",
      "outputs": [
        {
          "internalType": "bool",
          "name": "",
          "type": "bool"
        }
      ],
      "stateMutability": "nonpayable",
      "type": "function"
    },
    {
      "inputs": [
        {
          "internalType": "address",
          "name": "newOwner",
          "type": "address"
        }
      ],
      "name": "transferReplicaOwnership",
      "outputs": [],
      "stateMutability": "nonpayable",
      "type": "function"
    }
  ],
  "bytecode": "0x604060808152346200022057620000156200037d565b506001468103620002e5576200002a6200037d565b508151620000388162000361565b5f81525f60208201525f83820152905b60018060a01b0390818351169060018060a01b03197f9e7b61f58c47dc699ac88507c4f5bb9f121c03808c5676a8078fe583e464970092818454161783558360209586928289818685015116937f9e7b61f58c47dc699ac88507c4f5bb9f121c03808c5676a8078fe583e464970194848654161785550151167f9e7b61f58c47dc699ac88507c4f5bb9f121c03808c5676a8078fe583e46497029082825416179055620000f65f5462000326565b601f8111620002b1575b50836f10dbdb999a59195b9d1a585b081554d160821b015f5562000125855462000326565b94601f861162000279575b5f955060086318d554d160e21b019055633b9aca0060018060401b03196005541617600555620151806006553390600254161760025554166044875180948193639cd07acb60e01b8352816004840152600560248401525af19384156200026f575f9462000224575b505082600355541690813b1562000220575f916044839285519485938492635ca4b5b160e11b845260048401523060248401525af180156200021657620001ea575b505161124c9081620004058239f35b6001600160401b038111620002025781525f620001db565b634e487b7160e01b5f52604160045260245ffd5b82513d5f823e3d90fd5b5f80fd5b80919294503d821162000267575b601f8101601f19168301906001600160401b0382118483101762000202578391875281010312620002205751915f8062000199565b503d62000232565b85513d5f823e3d90fd5b909194815f52601f855f20910160051c8101905b818110620002a057505090849162000130565b5f815589955088945082016200028d565b5f805285601f865f20920160051c8201915b828110620002d357505062000100565b5f81558a9650899550879101620002c3565b4662aa36a7036200030157620002fa6200039d565b9062000048565b46617a69036200031557620002fa6200039d565b81516373cac13b60e01b8152600490fd5b90600182811c9216801562000356575b60208310146200034257565b634e487b7160e01b5f52602260045260245ffd5b91607f169162000336565b606081019081106001600160401b038211176200020257604052565b604051906200038c8262000361565b5f6040838281528260208201520152565b620003a76200037d565b50604051620003b68162000361565b73f0ffdc93b7e186bc2f8cb3daa75d86d1930a433d81527392c920834ec8941d2c77d188936e1f7a6f49c127602082015273be0e383937d564d7ff0bc3b46c51f0bf8d5c311a60408201529056fe6080604081815260049081361015610015575f80fd5b5f925f3560e01c90816304ffc8a714610bfa5750806306fdde0314610b515780631029959814610a8857806323d78e58146109db5780632d94ad6f146109bd578063313ce567146109a2578063424b95251461074c5780636eea2d5b146106115780637e36320b146105f257806385350c13146104f15780638927b030146104d45780638a8772051461049c5780638da5cb5b1461047357806395d89b411461037c5780639c28143014610353578063d448df3b14610280578063e80135c414610253578063ed77df9c146101525763f7aab50d146100f2575f80fd5b3461014e5736600319011261014a57356001600160401b038116908190036101465761012960018060a01b03600254163314610cfc565b600580546001600160401b03191691909117905560243560065580f35b5f80fd5b5080fd5b8280fd5b5091903461014a578160031936011261014a576002546001600160a01b03939061017f9085163314610cfc565b60035481519261018e84610c6a565b60019060018552602096602086019360203686378651156102405784525f805160206111d7833981519152541696873b1561023c579190845195637d6e912360e11b87526020602488019288015251809152604486019392875b828110610229578880898982828f8183818f03925af1908115610220575061020d5750f35b61021690610c43565b61021d5780f35b80fd5b513d84823e3d90fd5b84518652948101949381019383016101e8565b8680fd5b634e487b7160e01b885260328352602488fd5b83823461014a57602036600319011261014a57602090610279610274610c2d565b610d55565b9051908152f35b5091903461014a578160031936011261014a57338252602092818452808320548151926102ac84610c6a565b6001906001855286850192873685378551156103405783525f805160206111d7833981519152546001600160a01b031696873b1561023c579190845195637d6e912360e11b875283602488019288015251809152604486019392875b82811061032d578880898982828f8183818f03925af1908115610220575061020d5750f35b8451865294810194938101938301610308565b634e487b7160e01b875260328252602487fd5b83823461014a578160031936011261014a5760055490516001600160401b039091168152602090f35b50823461021d578060031936011261021d57508051905f90600191600154928360011c9060018516948515610469575b6020958684108114610456578388528794939291879082156104345750506001146103f7575b50506103f392916103e4910385610c85565b51928284938452830190610ca8565b0390f35b9085925060015f52825f20915f925b82841061041c57505050820101816103e46103d2565b8054848a018601528895508794909301928101610406565b60ff19168682015292151560051b850190920192508391506103e490506103d2565b602289634e487b7160e01b5f525260245ffd5b91607f16916103ac565b83823461014a578160031936011261014a5760025490516001600160a01b039091168152602090f35b83823461014a57602036600319011261014a5760209181906001600160a01b036104c4610c2d565b1681526007845220549051908152f35b83823461014a578160031936011261014a57602090610279611069565b503461014e578060031936011261014e577fcbc7021bbfe15127cc197bbd3c71b3a754ffa059a61b162cfb5bb6208aa9ad0b9061052c610c2d565b610534610ce6565b6002546001600160a01b0393916105de916105529086163314610cfc565b6001600160401b03169261056584611098565b948116968789526105b9610594602097838952610585878d205482610e50565b9061058e6110eb565b91610ed4565b898b528288526105a781878d2054610fe5565b8a8c52838952868c2055600354610fe5565b6003558789528086526105d0848a20543090611157565b878952855282882054611157565b6105ea30600354611157565b51908152a280f35b83823461014a578160031936011261014a576020906006549051908152f35b50903461014e578260031936011261014e573383526020906007825261063d8385205460065490610d34565b421061070d576005545f805160206111f783398151915292916001600160401b03916106939061066e908416611098565b33885282855261068181888a2054610d92565b33895283865287892055600354610d92565b6003553386528083526106aa858720543090611157565b33865282526106bc3385872054611157565b6106c830600354611157565b338552600782524284862055600554169280518481527f38d37c24895a65990c1ffe0d6c9f6ba1946f430d9e7b623a530590ad25403668833392a2519283523392a280f35b915162461bcd60e51b815291820152601b60248201527a11985d58d95d0818dbdbdb191bdddb881b9bdd08195b185c1cd959602a1b6044820152606490fd5b5082903461014657606036600319011261014657610768610c2d565b6001600160401b039360443592919085841161014657366023850112156101465783810135958611610146573660248786010111610146575f602087819860248751986107be85601f19601f860116018b610c85565b828a520183890137860101525f8661081960018060a01b0396875f805160206111b7833981519152541690875194858094819363045fc19560e11b83526024358a840152336024840152608060448401526084830190610ca8565b6005606483015203925af1908115610998575f9161096b575b50845f805160206111d78339815191525416803b15610146575f85518092630f8e573b60e21b825281838161086a33898b840161113e565b03925af1801561096157610942575b50906108c66108996109159493338952838a52610585878a205482610e50565b953388528289526108ad87878a2054610fe5565b338952838a528689205583169586885285882054610d92565b858752818852848720553386526108e1848720543090611157565b8486528087526108f43085882054611157565b3386528087526109073385882054611157565b848652865282852054611157565b51917f4853ae1b4d437c4255ac16cd3ceda3465975023f27cb141584cd9d44440fed82339180a360018152f35b610915939291965061095390610c43565b5f95919250906108c6610879565b85513d5f823e3d90fd5b90508681813d8311610991575b6109828183610c85565b81010312610146575187610832565b503d610978565b84513d5f823e3d90fd5b5034610146575f366003190112610146576020905160068152f35b5034610146575f366003190112610146576020906003549051908152f35b509034610146576020366003190112610146576109f6610c2d565b6002546001600160a01b03808216939192610a12338614610cfc565b16938415610a515750506001600160a01b03191682176002557f8be0079c531659141344cd1fd0a4f28419497f9722a3daafe3b4186f6b6457e05f80a3005b906020606492519162461bcd60e51b8352820152601160248201527024b73b30b634b2103732bb9037bbb732b960791b6044820152fd5b50903461014657816003193601126101465760205f805160206111f783398151915291610ab3610c2d565b93610b3e610abf610ce6565b6002546001600160a01b03979190610ada9089163314610cfc565b6001600160401b031693610b19610af086611098565b98831698895f52828852610b0781875f2054610d92565b8a5f52838952865f2055600354610d92565b600355875f52808652610b30845f20543090611157565b875f528552825f2054611157565b610b4a30600354611157565b51908152a2005b5034610146575f366003190112610146578051905f905f549160018360011c9060018516948515610bf0575b602095868410811461045657838852879493929187908215610434575050600114610bb45750506103f392916103e4910385610c85565b908592505f8052825f20915f925b828410610bd857505050820101816103e46103d2565b8054848a018601528895508794909301928101610bc2565b91607f1691610b7d565b91905034610146576020366003190112610146576020926001600160a01b03610c21610c2d565b165f5283525f20548152f35b600435906001600160a01b038216820361014657565b6001600160401b038111610c5657604052565b634e487b7160e01b5f52604160045260245ffd5b604081019081106001600160401b03821117610c5657604052565b601f909101601f19168101906001600160401b03821190821017610c5657604052565b91908251928382525f5b848110610cd2575050825f602080949584010152601f8019910116010190565b602081830181015184830182015201610cb2565b602435906001600160401b038216820361014657565b15610d0357565b60405162461bcd60e51b81526020600482015260096024820152682737ba1037bbb732b960b91b6044820152606490fd5b91908201809211610d4157565b634e487b7160e01b5f52601160045260245ffd5b6001600160a01b03165f90815260076020526040902054600654610d7891610d34565b80421015610d8d57428103908111610d415790565b505f90565b908115610e40575b8015610e2e575b602090606460018060a01b035f805160206111b78339815191525416935f604051958694859363022f65e760e31b8552600485015260248401528160448401525af1908115610e23575f91610df4575090565b90506020813d602011610e1b575b81610e0f60209383610c85565b81010312610146575190565b3d9150610e02565b6040513d5f823e3d90fd5b506020610e396110eb565b9050610da1565b9050610e4a6110eb565b90610d9a565b908115610ec4575b8015610eb2575b602090606460018060a01b035f805160206111b78339815191525416935f6040519586948593631d44e90160e21b8552600485015260248401528160448401525af1908115610e23575f91610df4575090565b506020610ebd6110eb565b9050610e5f565b9050610ece6110eb565b90610e58565b91908215610f61575b8015610f53575b8115610f3d575b6064602092935f60018060a01b035f805160206111b783398151915254166040519687958694637702dcff60e01b86526004860152602485015260448401525af1908115610e23575f91610df4575090565b602091506064610f4b6110eb565b925050610eeb565b50610f5c6110eb565b610ee4565b91505f602060018060a01b035f805160206111b78339815191525416604460405180948193639cd07acb60e01b83528160048401528160248401525af1908115610e23575f91610fb3575b5091610edd565b90506020813d602011610fdd575b81610fce60209383610c85565b8101031261014657515f610fac565b3d9150610fc1565b908115611059575b8015611047575b602090606460018060a01b035f805160206111b78339815191525416935f60405195869485936303056db360e31b8552600485015260248401528160448401525af1908115610e23575f91610df4575090565b5060206110526110eb565b9050610ff4565b90506110636110eb565b90610fed565b4660010361107657600190565b4662aa36a7036110865761271190565b617a694614611093575f90565b5f1990565b5f805160206111b783398151915254604051639cd07acb60e01b8152600481019290925260056024830152602090829060449082905f906001600160a01b03165af1908115610e23575f91610df4575090565b5f805160206111b783398151915254604051639cd07acb60e01b81525f60048201819052600560248301529091602091839160449183916001600160a01b03165af1908115610e23575f91610df4575090565b9081526001600160a01b03909116602082015260400190565b5f805160206111d7833981519152546001600160a01b031691823b156101465761119a925f9283604051809681958294635ca4b5b160e11b84526004840161113e565b03925af18015610e23576111ab5750565b6111b490610c43565b56fe9e7b61f58c47dc699ac88507c4f5bb9f121c03808c5676a8078fe583e46497019e7b61f58c47dc699ac88507c4f5bb9f121c03808c5676a8078fe583e46497009109de113672aaca72ede8bc906f7aafabee865311ac020fb15c71edf94a0a01a264697066735822122096762f6781e592bcd69bd3639a211cc6fe0032ba678cc17e336ee37e73ce868664736f6c63430008180033",
  "linkReferences": {},
  "deployedLinkReferences": {}
}